:020000040000FA
:080000008301000000009D28AF
:020008000800EE
:06000A000B100508400682
:100010000139031D63008920892005084006013944
:10002000031D05286F204A30A100892005084006DD
:100030000139031D3C28A10B1528B0182128B00A4E
:100040002228B0104E204A30A10089200508400621
:100050000139031D2E28A10B25281D28B301792065
:1000600030188710301C8714300831060339031903
:1000700005283314851D05288316851083128510E5
:100080001A30A10099201030331CB0073013B3018F
:10009000BA283108B00079204E200528B01853281E
:1000A00030185A28612807080F39103A8719303A52
:1000B0008700080007080F39203A8719303A87006F
:1000C000080007080F39303A8719303A87000800CE
:1000D00007080F39003A8719303A870008000708E7
:1000E0003F39C10068201A30A100992041088700DB
:1000F00008003008333983169A009B011C155530CF
:100100009D00AA309D009C149C1884281C11831209
:100110000800810183160108F03981008312143030
:10012000A0008B160B110B1D9328A00B92288B128D
:1001300008008920A10B9928080085018701073054
:10014000990008308B008316FF2390000B30850048
:10015000083087000130960001309500810183123C
:10016000C201B001031083169B011C141A088312EC
:100170003339B00030083039051901388500B0181E
:10018000D028B0103018CA28871407110515071099
:100190003010D62887100715051507103014D628FB
:1001A0008714071105110714B014301079204E2060
:1001B0008514831685148312B1013008B1004218EA
:0C01C00005284214C001051C401405284D
:0401CC0000340034C7
:02400E00D43F9D
:024200000000BC
:00000001FF
