:020000040000FA
:08000000830100000000C62886
:020008000800EE
:06000A000B100508400682
:100010000139031D6300B220B220050840060139F2
:10002000031D052884204A30A100B220050840069F
:100030000139031D5628A10B15283008B200070806
:100040003F39C1000C30B300B0182828B00A292865
:10005000B01063204A30A100B220050840060139E3
:10006000031D4A28A10B2C28B30B24283208B0000A
:100070007D203430A100C220050840060139031D4F
:1000800046281030B00730138E20392841088700E9
:10009000A2200528A22030188710301C87143008B1
:1000A000310603390319052885190528831685109B
:1000B000831285101A30A100C220E8283108B00050
:1000C000A22063200528B018682830186F287628E9
:1000D00007080F39103A8719303A870008000708D7
:1000E0000F39203A8719303A8700080007080F397E
:1000F000303A8719303A8700080007080F39003A6C
:100100008719303A8700080007083F39C1007D2071
:100110001A30A100C220410887000800B01E6F20DD
:10012000B01A68201A30A100C2207D201A30A10028
:10013000C220301E6F20301A68201A30A100C22061
:100140007D2008003008333983169A009B011C1566
:1001500055309D00AA309D009C149C18AD281C11A0
:1001600083120800810183160108F039810083128F
:100170001430A0008B160B110B1DBC28A00BBB2844
:100180008B120800B220A10BC2280800850187014C
:100190000730990008308B008316FF2390000B3046
:1001A00085000830870001309600013095008101FC
:1001B0008312C201B001031083169B011C141A089C
:1001C00083123339B0003008303905190138850001
:1001D000B018F928B0103018F32887140711051546
:1001E00007103010FF288710071505150710301469
:1001F000FF288714071105110714B0143010A2202E
:1002000063208514831685148312B1013008B10070
:0E021000421805284214C001051C40140528A0
:02021E000034AA
:020220000034A8
:02400E00D43F9D
:024200000000BC
:00000001FF
