:020000040000FA
:08000000830100000000C52887
:020008000800EE
:06000A000B100508400682
:100010000139031D6300B120B120050840060139F4
:10002000031D052883204A30A100B12005084006A1
:100030000139031D5628A10B15283008B200070806
:100040003F39C1000C30B300B0182828B00A292865
:10005000B01063204A30A100B120050840060139E4
:10006000031D4A28A10B2C28B30B24283208B0000A
:100070007C203430A100C120050840060139031D51
:1000800046281030B00730138D20392841088700EA
:10009000A1200528A12030188710301C87143008B3
:1000A0003106033903190528851D05288316851097
:1000B000831285101A30A100C120E7283108B00052
:1000C000A12063200528B018752830186E2807086D
:1000D0000F39103A8719303A8700080007080F399E
:1000E000203A8719303A8700080007080F39303A5C
:1000F0008719303A8700080007080F39003A871936
:10010000303A8700080007083F39C1007C201A30C8
:10011000A100C120410887000800B01E6E20B01A5F
:1001200067201A30A100C1207C201A30A100C12014
:10013000301E6E20301A67201A30A100C1207C20AA
:1001400008003008333983169A009B011C1555307E
:100150009D00AA309D009C149C18AC281C11831291
:100160000800810183160108F039810083121430E0
:10017000A0008B160B110B1DBB28A00BBA288B12ED
:100180000800B120A10BC1280800850187010730B4
:10019000990008308B008316FF2390000B308500F8
:1001A00008308700013096000130950081018312EC
:1001B000C201B001031083169B011C141A0883129C
:1001C0003339B00030083039051901388500B018CE
:1001D000F828B0103018F2288714071105150710F9
:1001E0003010FE2887100715051507103014FE285B
:1001F0008714071105110714B0143010A1206320D3
:100200008514831685148312B1013008B100421899
:0C02100005284214C001051C40140528FC
:04021C000034003476
:02400E00D43F9D
:024200000000BC
:00000001FF
