:020000040000FA
:080000008301000000008A28C2
:020008000800EE
:06000A000B100508400682
:100010000139031D6300762076200508400601396A
:10002000031D05284A30A100762005084006013945
:10003000031D3B28A10B1428B0182028B00A212842
:10004000B0104D204A30A100762005084006013945
:10005000031D2D28A10B24281C28B201662030186E
:100060008710301C8714300831060339031905281E
:100070003214851D052883168510831285101E30C5
:10008000A10086201030321CB0073013B201A7281F
:100090003108B00066204D200528B0185F283018C0
:1000A000582807080F39103A8719303A8700080096
:1000B00007080F39203A8719303A870008000708E7
:1000C0000F39303A8719303A870008003008333941
:1000D00083169A009B011C1555309D00AA309D0087
:1000E0009C149C1871281C1183120800810183162E
:1000F0000108F039810083121430A0008B160B1117
:100100000B1D8028A00B7F288B1208007620A10BE6
:1001100086280800850187010730990008308B0088
:100120008316FF2390000B308500083087000130D4
:1001300096000130950081018312C201B0010310C5
:1001400083169B011C141A0883123339B00030083F
:100150003039051901388500B018BD28B0103018A5
:10016000B72887140711051507103010C32887100A
:100170000715051507103014C3288714071105113A
:100180000714B014301066204D2085148316851492
:100190008312B1013008B100421805284214C00191
:0601A000051C40140528B7
:0401A60000340034ED
:02400E00D43F9D
:024200000000BC
:00000001FF
