:020000040000FA
:08000000830100000000AF289D
:020008000800EE
:06000A000B100508400682
:100010002039031D63009B209B20050840062039E2
:10002000031D05284A30A1009B2005084006203901
:10003000031D5228A10B1428B00A033030060319FF
:100040007A2060204A30A1009B2005084006203914
:10005000031D2D28A10B24281C287C2000303006ED
:1000600003193B280130300603193E2802303006C0
:1000700003194128442887140711492887100715B8
:1000800049288714071149283108B0007C206020D6
:100090000528B30131083006023903190528331445
:1000A0008519052883160512831205121E30A1003A
:1000B000AB20331CB20A3219B201B3018B20D12814
:1000C000B018652830186C28732807080F39103AC3
:1000D0008719303A8700080007080F39203A871936
:1000E000303A8700080007080F39303A8719303A4C
:1000F00087000800B0010800300883169A009B01B1
:100100001C1555309D00AA309D009C149C18862813
:100110001C1183120800320883169A0001309B00DC
:100120001C1555309D00AA309D009C149C189628E3
:100130001C1183120800810183160108F039810027
:1001400083121430A0008B160B110B1DA528A00BD9
:10015000A4288B1208009B20A10BAB280800850166
:1001600087010730990008308B008316FF23900029
:100170003830850008308700203096002030950008
:1001800081018312C201B001B201031083169B01E9
:100190001C141A08B0009B0A1C141A080339B20078
:1001A000831232088500B018E5283018DE2887143D
:1001B0000711051507100030B000EB288710071550
:1001C000051507100130B000EB2887140711051141
:1001D00007140230B0007C20602005168316051637
:1001E0008312B1013008B100421805284214C00141
:0601F000851EC016052863
:0401F600003400349D
:02400E00D43F9D
:0442000000000000BA
:00000001FF
