:020000040000FA
:080000008301000000008C28C0
:020008000800EE
:06000A000B100508400682
:100010000139031D63007820782005084006013966
:10002000031D05284A30A100782005084006013943
:10003000031D3B28A10B1428B00A03303006031916
:1000400066204D204A30A10078200508400601397D
:10005000031D2D28A10B24281C28B201682030186C
:100060008710301C8714300831060339031905281E
:100070003214851D052883168510831285101E30C5
:10008000A10088201030321CB0073013B201A9281B
:100090003108B00068204D200528B0185F283018BE
:1000A000582807080F39103A8719303A8700080096
:1000B00007080F39203A8719303A870008000708E7
:1000C0000F39303A8719303A87000800B00108002C
:1000D0003008333983169A009B011C1555309D005A
:1000E000AA309D009C149C1873281C1183120800D0
:1000F000810183160108F039810083121430A000B9
:100100008B160B110B1D8228A00B81288B12080067
:100110007820A10B88280800850187010730990005
:1001200008308B008316FF2390000B3085000830C9
:100130008700013096000130950081018312C201D1
:10014000B001031083169B011C141A088312333963
:10015000B00030083039051901388500B018BF28C3
:10016000B0103018B928871407110515071030147E
:10017000C52887100715051507103010C5288714E6
:10018000071105110714B014301468204D20851490
:10019000831685148312B1013008B1004218052876
:0A01A0004214C001051C401405289C
:0401AA0000340034E9
:02400E00D43F9D
:024200000000BC
:00000001FF
