:020000040000FA
:08000000830100000000B2289A
:020008000800EE
:06000A0005084006203944
:1000100003190C280B1063009E209E200508400643
:100020002039031D05284A30A1009E2005084006FE
:100030002039031D5328A10B1528B00A03303006C0
:1000400003197D2063204A30A1009E200508400648
:100050002039031D2E28A10B25281D287F200030C4
:10006000300603193C280130300603193F280230BE
:100070003006031942284528051507104A2805119E
:1000800007144A28051507104A283108B0007F20B8
:1000900063200528B3013108300602390319052809
:1000A00033148519052883160512831205121E3094
:1000B000A100AE203008B100331CB20A3219B201DF
:1000C000B3018E20D528B018682830186F287628FC
:1000D00007080F39103A8719303A870008000708D7
:1000E0000F39203A8719303A8700080007080F397E
:1000F000303A8719303A87000800B001080030080C
:1001000083169A009B011C1555309D00AA309D0056
:100110009C149C1889281C1183120800320883162D
:100120009A0001309B001C1555309D00AA309D009F
:100130009C149C1899281C118312080081018316B5
:100140000108F039810083121430A0008B160B11C6
:100150000B1DA828A00BA7288B1208009E20A10B1E
:10016000AE280800850187010730990008308B0010
:100170008316FF2390003830850008308700203038
:1001800096002030950081018312C201B001B201B6
:10019000031083169B011C141A08B000B1009B0ABF
:1001A0001C141A080339B200831232088500B018F3
:1001B000E9283018E22805150710871407110030C8
:1001C000B000EF2805110714871407110130B000A3
:1001D000EF2805150710871007150230B0007F20A3
:1001E00063200516831605168312B1013008B1008D
:0E01F000421805284214C001851EC0160528BD
:0201FE000034CB
:020200000034C8
:02400E00D43F9D
:0442000000000000BA
:00000001FF
