:020000040000FA
:080000008301000000009C28B0
:020008000800EE
:06000A000B100508400682
:100010000139031D63008820882005084006013946
:10002000031D05286E204A30A100882005084006DF
:100030000139031D3C28A10B1528B0182128B00A4E
:100040002228B0104E204A30A10088200508400622
:100050000139031D2E28A10B25281D28B301782066
:1000600030188710301C8714300831060339031903
:1000700005283314851D05288316851083128510E5
:100080001A30A10098201030331CB0073013B30190
:10009000B9283108B00078204E200528B018602813
:1000A0003018592807080F39103A8719303A870055
:1000B000080007080F39203A8719303A87000800EE
:1000C00007080F39303A8719303A870008000708C7
:1000D0000F39003A8719303A8700080007083F397E
:1000E000C10067201A30A10098204108870008004D
:1000F0003008333983169A009B011C1555309D003A
:10010000AA309D009C149C1883281C11831208009F
:10011000810183160108F039810083121430A00098
:100120008B160B110B1D9228A00B91288B12080027
:100130008820A10B982808008501870107309900C5
:1001400008308B008316FF2390000B3085000830A9
:100150008700013096000130950081018312C201B1
:10016000B001031083169B011C141A088312333943
:10017000B00030083039051901388500B018CF2893
:10018000B0103018C9288714071105150710301052
:10019000D52887100715051507103014D5288714A2
:1001A000071105110714B014301078204E20851463
:1001B000831685148312B1013008B1004218052856
:0A01C0004214C001051C401405287C
:0401CA0000340034C9
:02400E00D43F9D
:024200000000BC
:00000001FF
