:020000040000FA
:080000008301000000008B28C1
:020008000800EE
:06000A000B100508400682
:100010000139031D63007720772005084006013968
:10002000031D05284A30A100772005084006013944
:10003000031D3B28A10B1428B0182028B00A212842
:10004000B0104D204A30A100772005084006013944
:10005000031D2D28A10B24281C28B201672030186D
:100060008710301C8714300831060339031905281E
:100070003214851D052883168510831285101E30C5
:10008000A10087201030321CB0073013B201A8281D
:100090003108B00067204D200528B01852283018CC
:1000A0005928602807080F39103A8719303A870015
:1000B000080007080F39203A8719303A87000800EE
:1000C00007080F39303A8719303A8700080030089E
:1000D000333983169A009B011C1555309D00AA30B8
:1000E0009D009C149C1872281C1183120800810129
:1000F00083160108F039810083121430A0008B169A
:100100000B110B1D8128A00B80288B120800772073
:10011000A10B872808008501870107309900083066
:100120008B008316FF2390000B308500083087007A
:10013000013096000130950081018312C201B001A7
:10014000031083169B011C141A0883123339B00064
:1001500030083039051901388500B018BE28B010B4
:100160003018B82887140711051507103010C42857
:1001700087100715051507103014C42887140711B8
:1001800005110714B014301067204D208514831614
:1001900085148312B1013008B100421805284214B9
:0801A000C001051C40140528F4
:0401A80000340034EB
:02400E00D43F9D
:024200000000BC
:00000001FF
