:020000040000FA
:080000008301000000009D28AF
:020008000800EE
:06000A000B100508400682
:100010000139031D63008920892005084006013944
:10002000031D05284A30A100892005084006013932
:10003000031D3A28A10B1428B00A03303006031917
:1000400068204E204A30A100892005084006013969
:10005000031D2D28A10B24281C28B3016A20301869
:100060008710301C87143008310603190528331413
:10007000851D052883168510831285101E30A1006A
:1000800099201030331CB207321BB201B301792022
:10009000BF283108B0006A204E200528B018532828
:1000A00030185A28612807080F39103A8719303A52
:1000B0008700080007080F39203A8719303A87006F
:1000C000080007080F39303A8719303A87000800CE
:1000D000B0010800300883169A009B011C155530AA
:1000E0009D00AA309D009C149C1874281C1183123A
:1000F0000800320883169A0001309B001C15553009
:100100009D00AA309D009C149C1884281C11831209
:100110000800810183160108F03981008312143030
:10012000A0008B160B110B1D9328A00B92288B128D
:1001300008008920A10B9928080085018701073054
:10014000990008308B008316FF2390000B30850048
:10015000083087000130960001309500810183123C
:10016000C201B001B201031083169B011C141A08CE
:10017000B0009B0A1C141A083039B20083123208EE
:100180008500B018D3283018CC288714071105151E
:1001900007100030B000D928871007150515071083
:1001A0000130B000D9288714071105110714023057
:1001B000B0006A204E208514831685148312B10185
:1001C0003008B100421805284214C001051C401433
:0201D000052800
:0401D20000340034C1
:02400E00D43F9D
:0442000000000000BA
:00000001FF
