:020000040000FA
:080000008301000000008D28BF
:020008000800EE
:06000A000B100508400682
:100010000139031D63007920792005084006013964
:10002000031D05284A30A100792005084006013942
:10003000031D3B28A10B1428B00A03303006031916
:1000400067204D204A30A10079200508400601397B
:10005000031D2D28A10B24281C28B201692030186B
:100060008710301C8714300831060339031905281E
:100070003214851D052883168510831285101E30C5
:10008000A10089201030321CB0073013B201AA2819
:100090003108B00069204D200528B01852283018CA
:1000A0005928602807080F39103A8719303A870015
:1000B000080007080F39203A8719303A87000800EE
:1000C00007080F39303A8719303A87000800B00125
:1000D00008003008333983169A009B011C155530EF
:1000E0009D00AA309D009C149C1874281C1183123A
:1000F0000800810183160108F03981008312143051
:10010000A0008B160B110B1D8328A00B82288B12CD
:1001100008007920A10B8928080085018701073094
:10012000990008308B008316FF2390000B30850068
:10013000083087000130960001309500810183125C
:10014000C201B001031083169B011C141A0883120C
:100150003339B00030083039051901388500B0183E
:10016000C028B0103018BA288714071105150710D9
:100170003014C62887100715051507103010C6283B
:100180008714071105110714B014301469204D208D
:100190008514831685148312B1013008B10042180A
:0C01A00005284214C001051C401405286D
:0401AC0000340034E7
:02400E00D43F9D
:024200000000BC
:00000001FF
