:020000040000FA
:080000008301000000009C28B0
:020008000800EE
:06000A000B100508400682
:100010000139031D63008820882005084006013946
:10002000031D05284A30A100882005084006013933
:10003000031D3A28A10B1428B00A03303006031917
:1000400067204E204A30A10088200508400601396B
:10005000031D2D28A10B24281C28B301692030186A
:100060008710301C87143008310603190528331413
:10007000851D052883168510831285101E30A1006A
:1000800098201030331CB207321BB201B301782024
:10009000BE283108B00069204E200528B01860281D
:1000A0003018592807080F39103A8719303A870055
:1000B000080007080F39203A8719303A87000800EE
:1000C00007080F39303A8719303A87000800B00125
:1000D0000800300883169A009B011C1555309D00BE
:1000E000AA309D009C149C1873281C1183120800D0
:1000F000320883169A0001309B001C1555309D0074
:10010000AA309D009C149C1883281C11831208009F
:10011000810183160108F039810083121430A00098
:100120008B160B110B1D9228A00B91288B12080027
:100130008820A10B982808008501870107309900C5
:1001400008308B008316FF2390000B3085000830A9
:100150008700013096000130950081018312C201B1
:10016000B001B201031083169B011C141A08B000E1
:100170009B0A1C141A083039B20083123208850019
:10018000B018D2283018CB2887140711051507108E
:100190000030B000D828871007150515071001306A
:1001A000B000D82887140711051107140230B000D9
:1001B00069204E208514831685148312B1013008FE
:1001C000B100421805284214C001051C401405283E
:0401D00000340034C3
:02400E00D43F9D
:0442000000000000BA
:00000001FF
