:020000040000FA
:08000000830100000000B1289B
:020008000800EE
:06000A0005084006203944
:1000100003190C280B1063009D209D200508400645
:100020002039031D05284A30A1009D2005084006FF
:100030002039031D5328A10B1528B00A03303006C0
:1000400003197C2063204A30A1009D20050840064A
:100050002039031D2E28A10B25281D287E200030C5
:10006000300603193C280130300603193F280230BE
:100070003006031942284528051507104A2805119E
:1000800007144A28051507104A283108B0007E20B9
:1000900063200528B3013108300602390319052809
:1000A00033148519052883160512831205121E3094
:1000B000A100AD203008B100331CB20A3219B201E0
:1000C000B3018D20D428B018752830186E28070881
:1000D0000F39103A8719303A8700080007080F399E
:1000E000203A8719303A8700080007080F39303A5C
:1000F0008719303A87000800B001080030088316DD
:100100009A009B011C1555309D00AA309D009C143F
:100110009C1888281C1183120800320883169A0044
:1001200001309B001C1555309D00AA309D009C1489
:100130009C1898281C11831208008101831601085D
:10014000F039810083121430A0008B160B110B1DA7
:10015000A728A00BA6288B1208009D20A10BAD2874
:100160000800850187010730990008308B0083164D
:10017000FF2390003830850008308700203096003B
:100180002030950081018312C201B001B201031039
:1001900083169B011C141A08B000B1009B0A1C14A2
:1001A0001A080339B200831232088500B018E82813
:1001B0003018E12805150710871407110030B0002A
:1001C000EE2805110714871407110130B000EE283E
:1001D00005150710871007150230B0007E20632038
:1001E0000516831605168312B1013008B1004218B6
:0C01F00005284214C001851EC016052819
:0401FC000034003497
:02400E00D43F9D
:0442000000000000BA
:00000001FF
