:020000040000FA
:08000000830100000000AE289E
:020008000800EE
:06000A000B100508400682
:100010002039031D63009A209A20050840062039E4
:10002000031D05284A30A1009A2005084006203902
:10003000031D5228A10B1428B00A033030060319FF
:10004000792060204A30A1009A2005084006203916
:10005000031D2D28A10B24281C287B2000303006EE
:1000600003193B280130300603193E2802303006C0
:1000700003194128442887140711492887100715B8
:1000800049288714071149283108B0007B206020D7
:100090000528B30131083006023903190528331445
:1000A0008519052883160512831205121E30A1003A
:1000B000AA20331CB20A3219B201B3018A20D02817
:1000C000B018722830186B2807080F39103A8719B2
:1000D000303A8700080007080F39203A8719303A6C
:1000E0008700080007080F39303A8719303A87002F
:1000F0000800B0010800300883169A009B011C1507
:1001000055309D00AA309D009C149C1885281C1118
:1001100083120800320883169A0001309B001C15D8
:1001200055309D00AA309D009C149C1895281C11E8
:1001300083120800810183160108F03981008312BF
:100140001430A0008B160B110B1DA428A00BA328A4
:100150008B1208009A20A10BAA28080085018701AC
:100160000730990008308B008316FF239000383049
:1001700085000830870020309600203095008101EE
:100180008312C201B001B201031083169B011C143B
:100190001A08B0009B0A1C141A080339B200831213
:1001A00032088500B018E4283018DD2887140711BC
:1001B000051507100030B000EA288710071505154F
:1001C00007100130B000EA28871407110511071441
:1001D0000230B0007B2060200516831605168312BE
:1001E000B1013008B100421805284214C001851E33
:0401F000C016052808
:0401F400003400349F
:02400E00D43F9D
:0442000000000000BA
:00000001FF
